{"abi":[{"type":"constructor","inputs":[{"name":"name","type":"string","internalType":"string"},{"name":"symbol","type":"string","internalType":"string"},{"name":"decimals_","type":"uint8","internalType":"uint8"},{"name":"maxSupply_","type":"uint256","internalType":"uint256"}],"stateMutability":"nonpayable"},{"type":"function","name":"acceptOwnership","inputs":[],"outputs":[],"stateMutability":"nonpayable"},{"type":"function","name":"allowance","inputs":[{"name":"owner","type":"address","internalType":"address"},{"name":"spender","type":"address","internalType":"address"}],"outputs":[{"name":"","type":"uint256","internalType":"uint256"}],"stateMutability":"view"},{"type":"function","name":"approve","inputs":[{"name":"spender","type":"address","internalType":"address"},{"name":"amount","type":"uint256","internalType":"uint256"}],"outputs":[{"name":"","type":"bool","internalType":"bool"}],"stateMutability":"nonpayable"},{"type":"function","name":"balanceOf","inputs":[{"name":"account","type":"address","internalType":"address"}],"outputs":[{"name":"","type":"uint256","internalType":"uint256"}],"stateMutability":"view"},{"type":"function","name":"burn","inputs":[{"name":"amount","type":"uint256","internalType":"uint256"}],"outputs":[],"stateMutability":"nonpayable"},{"type":"function","name":"burn","inputs":[{"name":"account","type":"address","internalType":"address"},{"name":"amount","type":"uint256","internalType":"uint256"}],"outputs":[],"stateMutability":"nonpayable"},{"type":"function","name":"burnFrom","inputs":[{"name":"account","type":"address","internalType":"address"},{"name":"amount","type":"uint256","internalType":"uint256"}],"outputs":[],"stateMutability":"nonpayable"},{"type":"function","name":"decimals","inputs":[],"outputs":[{"name":"","type":"uint8","internalType":"uint8"}],"stateMutability":"view"},{"type":"function","name":"decreaseAllowance","inputs":[{"name":"spender","type":"address","internalType":"address"},{"name":"subtractedValue","type":"uint256","internalType":"uint256"}],"outputs":[{"name":"","type":"bool","internalType":"bool"}],"stateMutability":"nonpayable"},{"type":"function","name":"decreaseApproval","inputs":[{"name":"spender","type":"address","internalType":"address"},{"name":"subtractedValue","type":"uint256","internalType":"uint256"}],"outputs":[{"name":"success","type":"bool","internalType":"bool"}],"stateMutability":"nonpayable"},{"type":"function","name":"getBurners","inputs":[],"outputs":[{"name":"","type":"address[]","internalType":"address[]"}],"stateMutability":"view"},{"type":"function","name":"getMinters","inputs":[],"outputs":[{"name":"","type":"address[]","internalType":"address[]"}],"stateMutability":"view"},{"type":"function","name":"grantBurnRole","inputs":[{"name":"burner","type":"address","internalType":"address"}],"outputs":[],"stateMutability":"nonpayable"},{"type":"function","name":"grantMintAndBurnRoles","inputs":[{"name":"burnAndMinter","type":"address","internalType":"address"}],"outputs":[],"stateMutability":"nonpayable"},{"type":"function","name":"grantMintRole","inputs":[{"name":"minter","type":"address","internalType":"address"}],"outputs":[],"stateMutability":"nonpayable"},{"type":"function","name":"increaseAllowance","inputs":[{"name":"spender","type":"address","internalType":"address"},{"name":"addedValue","type":"uint256","internalType":"uint256"}],"outputs":[{"name":"","type":"bool","internalType":"bool"}],"stateMutability":"nonpayable"},{"type":"function","name":"increaseApproval","inputs":[{"name":"spender","type":"address","internalType":"address"},{"name":"addedValue","type":"uint256","internalType":"uint256"}],"outputs":[],"stateMutability":"nonpayable"},{"type":"function","name":"isBurner","inputs":[{"name":"burner","type":"address","internalType":"address"}],"outputs":[{"name":"","type":"bool","internalType":"bool"}],"stateMutability":"view"},{"type":"function","name":"isMinter","inputs":[{"name":"minter","type":"address","internalType":"address"}],"outputs":[{"name":"","type":"bool","internalType":"bool"}],"stateMutability":"view"},{"type":"function","name":"maxSupply","inputs":[],"outputs":[{"name":"","type":"uint256","internalType":"uint256"}],"stateMutability":"view"},{"type":"function","name":"mint","inputs":[{"name":"account","type":"address","internalType":"address"},{"name":"amount","type":"uint256","internalType":"uint256"}],"outputs":[],"stateMutability":"nonpayable"},{"type":"function","name":"name","inputs":[],"outputs":[{"name":"","type":"string","internalType":"string"}],"stateMutability":"view"},{"type":"function","name":"owner","inputs":[],"outputs":[{"name":"","type":"address","internalType":"address"}],"stateMutability":"view"},{"type":"function","name":"revokeBurnRole","inputs":[{"name":"burner","type":"address","internalType":"address"}],"outputs":[],"stateMutability":"nonpayable"},{"type":"function","name":"revokeMintRole","inputs":[{"name":"minter","type":"address","internalType":"address"}],"outputs":[],"stateMutability":"nonpayable"},{"type":"function","name":"supportsInterface","inputs":[{"name":"interfaceId","type":"bytes4","internalType":"bytes4"}],"outputs":[{"name":"","type":"bool","internalType":"bool"}],"stateMutability":"pure"},{"type":"function","name":"symbol","inputs":[],"outputs":[{"name":"","type":"string","internalType":"string"}],"stateMutability":"view"},{"type":"function","name":"totalSupply","inputs":[],"outputs":[{"name":"","type":"uint256","internalType":"uint256"}],"stateMutability":"view"},{"type":"function","name":"transfer","inputs":[{"name":"to","type":"address","internalType":"address"},{"name":"amount","type":"uint256","internalType":"uint256"}],"outputs":[{"name":"","type":"bool","internalType":"bool"}],"stateMutability":"nonpayable"},{"type":"function","name":"transferAndCall","inputs":[{"name":"to","type":"address","internalType":"address"},{"name":"amount","type":"uint256","internalType":"uint256"},{"name":"data","type":"bytes","internalType":"bytes"}],"outputs":[{"name":"success","type":"bool","internalType":"bool"}],"stateMutability":"nonpayable"},{"type":"function","name":"transferFrom","inputs":[{"name":"from","type":"address","internalType":"address"},{"name":"to","type":"address","internalType":"address"},{"name":"amount","type":"uint256","internalType":"uint256"}],"outputs":[{"name":"","type":"bool","internalType":"bool"}],"stateMutability":"nonpayable"},{"type":"function","name":"transferOwnership","inputs":[{"name":"to","type":"address","internalType":"address"}],"outputs":[],"stateMutability":"nonpayable"},{"type":"event","name":"Approval","inputs":[{"name":"owner","type":"address","indexed":true,"internalType":"address"},{"name":"spender","type":"address","indexed":true,"internalType":"address"},{"name":"value","type":"uint256","indexed":false,"internalType":"uint256"}],"anonymous":false},{"type":"event","name":"BurnAccessGranted","inputs":[{"name":"burner","type":"address","indexed":true,"internalType":"address"}],"anonymous":false},{"type":"event","name":"BurnAccessRevoked","inputs":[{"name":"burner","type":"address","indexed":true,"internalType":"address"}],"anonymous":false},{"type":"event","name":"MintAccessGranted","inputs":[{"name":"minter","type":"address","indexed":true,"internalType":"address"}],"anonymous":false},{"type":"event","name":"MintAccessRevoked","inputs":[{"name":"minter","type":"address","indexed":true,"internalType":"address"}],"anonymous":false},{"type":"event","name":"OwnershipTransferRequested","inputs":[{"name":"from","type":"address","indexed":true,"internalType":"address"},{"name":"to","type":"address","indexed":true,"internalType":"address"}],"anonymous":false},{"type":"event","name":"OwnershipTransferred","inputs":[{"name":"from","type":"address","indexed":true,"internalType":"address"},{"name":"to","type":"address","indexed":true,"internalType":"address"}],"anonymous":false},{"type":"event","name":"Transfer","inputs":[{"name":"from","type":"address","indexed":true,"internalType":"address"},{"name":"to","type":"address","indexed":true,"internalType":"address"},{"name":"value","type":"uint256","indexed":false,"internalType":"uint256"}],"anonymous":false},{"type":"event","name":"Transfer","inputs":[{"name":"from","type":"address","indexed":true,"internalType":"address"},{"name":"to","type":"address","indexed":true,"internalType":"address"},{"name":"value","type":"uint256","indexed":false,"internalType":"uint256"},{"name":"data","type":"bytes","indexed":false,"internalType":"bytes"}],"anonymous":false},{"type":"error","name":"MaxSupplyExceeded","inputs":[{"name":"supplyAfterMint","type":"uint256","internalType":"uint256"}]},{"type":"error","name":"SenderNotBurner","inputs":[{"name":"sender","type":"address","internalType":"address"}]},{"type":"error","name":"SenderNotMinter","inputs":[{"name":"sender","type":"address","internalType":"address"}]}],"bytecode":{"object":"0x60c06040523480156200001157600080fd5b5060405162001c2a38038062001c2a833981016040819052620000349162000277565b338060008686818160036200004a838262000391565b50600462000059828262000391565b5050506001600160a01b0384169150620000bc90505760405162461bcd60e51b815260206004820152601860248201527f43616e6e6f7420736574206f776e657220746f207a65726f000000000000000060448201526064015b60405180910390fd5b600580546001600160a01b0319166001600160a01b0384811691909117909155811615620000ef57620000ef8162000106565b50505060ff90911660805260a052506200045d9050565b336001600160a01b03821603620001605760405162461bcd60e51b815260206004820152601760248201527f43616e6e6f74207472616e7366657220746f2073656c660000000000000000006044820152606401620000b3565b600680546001600160a01b0319166001600160a01b03838116918217909255600554604051919216907fed8889f560326eb138920d842192f0eb3dd22b4f139c87a2c57538e05bae127890600090a350565b634e487b7160e01b600052604160045260246000fd5b600082601f830112620001da57600080fd5b81516001600160401b0380821115620001f757620001f7620001b2565b604051601f8301601f19908116603f01168101908282118183101715620002225762000222620001b2565b816040528381526020925086838588010111156200023f57600080fd5b600091505b8382101562000263578582018301518183018401529082019062000244565b600093810190920192909252949350505050565b600080600080608085870312156200028e57600080fd5b84516001600160401b0380821115620002a657600080fd5b620002b488838901620001c8565b95506020870151915080821115620002cb57600080fd5b50620002da87828801620001c8565b935050604085015160ff81168114620002f257600080fd5b6060959095015193969295505050565b600181811c908216806200031757607f821691505b6020821081036200033857634e487b7160e01b600052602260045260246000fd5b50919050565b601f8211156200038c57600081815260208120601f850160051c81016020861015620003675750805b601f850160051c820191505b81811015620003885782815560010162000373565b5050505b505050565b81516001600160401b03811115620003ad57620003ad620001b2565b620003c581620003be845462000302565b846200033e565b602080601f831160018114620003fd5760008415620003e45750858301515b600019600386901b1c1916600185901b17855562000388565b600085815260208120601f198616915b828110156200042e578886015182559484019460019091019084016200040d565b50858210156200044d5787850151600019600388901b60f8161c191681555b5050505050600190811b01905550565b60805160a051611799620004916000396000818161042d01528181610715015261073f0152600061027101526117996000f3fe608060405234801561001057600080fd5b50600436106101f05760003560e01c806379cc67901161010f578063c2e3273d116100a2578063d73dd62311610071578063d73dd62314610451578063dd62ed3e14610464578063f2fde38b14610477578063f81094f31461048a57600080fd5b8063c2e3273d146103f2578063c630948d14610405578063c64d0ebc14610418578063d5abeb011461042b57600080fd5b80639dc29fac116100de5780639dc29fac146103a6578063a457c2d7146103b9578063a9059cbb146103cc578063aa271e1a146103df57600080fd5b806379cc67901461036857806386fe8b431461037b5780638da5cb5b1461038357806395d89b411461039e57600080fd5b806340c10f19116101875780636618846311610156578063661884631461030f5780636b32810b1461032257806370a082311461033757806379ba50971461036057600080fd5b806340c10f19146102c157806342966c68146102d65780634334614a146102e95780634f5632f8146102fc57600080fd5b806323b872dd116101c357806323b872dd14610257578063313ce5671461026a578063395093511461029b5780634000aea0146102ae57600080fd5b806301ffc9a7146101f557806306fdde031461021d578063095ea7b31461023257806318160ddd14610245575b600080fd5b6102086102033660046113d6565b61049d565b60405190151581526020015b60405180910390f35b61022561050a565b6040516102149190611446565b610208610240366004611475565b61059c565b6002545b604051908152602001610214565b61020861026536600461149f565b6105b4565b60405160ff7f0000000000000000000000000000000000000000000000000000000000000000168152602001610214565b6102086102a9366004611475565b6105d8565b6102086102bc3660046114f1565b6105fa565b6102d46102cf366004611475565b6106d0565b005b6102d46102e43660046115bc565b6107b8565b6102086102f73660046115d5565b6107ec565b6102d461030a3660046115d5565b6107f9565b61020861031d366004611475565b610848565b61032a61085b565b60405161021491906115f0565b6102496103453660046115d5565b6001600160a01b031660009081526020819052604090205490565b6102d461086c565b6102d4610376366004611475565b61091a565b61032a610950565b6005546040516001600160a01b039091168152602001610214565b61022561095c565b6102d46103b4366004611475565b61096b565b6102086103c7366004611475565b610975565b6102086103da366004611475565b6109f0565b6102086103ed3660046115d5565b6109fe565b6102d46104003660046115d5565b610a0b565b6102d46104133660046115d5565b610a5a565b6102d46104263660046115d5565b610a68565b7f0000000000000000000000000000000000000000000000000000000000000000610249565b6102d461045f366004611475565b610ab7565b61024961047236600461163d565b610ac1565b6102d46104853660046115d5565b610aec565b6102d46104983660046115d5565b610afd565b60006001600160e01b031982166336372b0760e01b14806104ce57506001600160e01b03198216630200057560e51b145b806104e957506001600160e01b0319821663e6599b4d60e01b145b8061050457506001600160e01b031982166301ffc9a760e01b145b92915050565b60606003805461051990611670565b80601f016020809104026020016040519081016040528092919081815260200182805461054590611670565b80156105925780601f1061056757610100808354040283529160200191610592565b820191906000526020600020905b81548152906001019060200180831161057557829003601f168201915b5050505050905090565b6000336105aa818585610b4c565b5060019392505050565b6000336105c2858285610b73565b6105cd858585610be7565b506001949350505050565b6000336105aa8185856105eb8383610ac1565b6105f591906116c0565b610b4c565b600061060684846109f0565b50836001600160a01b0316336001600160a01b03167fe19260aff97b920c7df27010903aeb9c8d2be5d310a2c67824cf3f15396e4c16858560405161064c9291906116d3565b60405180910390a36001600160a01b0384163b156105aa57604051635260769b60e11b81526001600160a01b0385169063a4c0ed3690610694903390879087906004016116f4565b600060405180830381600087803b1580156106ae57600080fd5b505af11580156106c2573d6000803e3d6000fd5b505050505060019392505050565b6106d9336109fe565b6106fd5760405163e2c8c9d560e01b81523360048201526024015b60405180910390fd5b81306001600160a01b0382160361071357600080fd5b7f00000000000000000000000000000000000000000000000000000000000000001580159061077457507f00000000000000000000000000000000000000000000000000000000000000008261076860025490565b61077291906116c0565b115b156107a9578161078360025490565b61078d91906116c0565b60405163cbbf111360e01b81526004016106f491815260200190565b6107b38383610c08565b505050565b6107c1336107ec565b6107e05760405163c820b10b60e01b81523360048201526024016106f4565b6107e981610cc7565b50565b6000610504600983610cd1565b610801610cf3565b61080c600982610d48565b156107e9576040516001600160a01b038216907f0a675452746933cefe3d74182e78db7afe57ba60eaa4234b5d85e9aa41b0610c90600090a250565b60006108548383610975565b9392505050565b60606108676007610d5d565b905090565b6006546001600160a01b031633146108bf5760405162461bcd60e51b815260206004820152601660248201527526bab9ba10313290383937b837b9b2b21037bbb732b960511b60448201526064016106f4565b600580546001600160a01b0319808216339081179093556006805490911690556040516001600160a01b03909116919082907f8be0079c531659141344cd1fd0a4f28419497f9722a3daafe3b4186f6b6457e090600090a350565b610923336107ec565b6109425760405163c820b10b60e01b81523360048201526024016106f4565b61094c8282610d6a565b5050565b60606108676009610d5d565b60606004805461051990611670565b61094c828261091a565b600033816109838286610ac1565b9050838110156109e35760405162461bcd60e51b815260206004820152602560248201527f45524332303a2064656372656173656420616c6c6f77616e63652062656c6f77604482015264207a65726f60d81b60648201526084016106f4565b6105cd8286868403610b4c565b6000336105aa818585610be7565b6000610504600783610cd1565b610a13610cf3565b610a1e600782610d7f565b156107e9576040516001600160a01b038216907fe46fef8bbff1389d9010703cf8ebb363fb3daf5bf56edc27080b67bc8d9251ea90600090a250565b610a6381610a0b565b6107e9815b610a70610cf3565b610a7b600982610d7f565b156107e9576040516001600160a01b038216907f92308bb7573b2a3d17ddb868b39d8ebec433f3194421abc22d084f89658c9bad90600090a250565b6107b382826105d8565b6001600160a01b03918216600090815260016020908152604080832093909416825291909152205490565b610af4610cf3565b6107e981610d94565b610b05610cf3565b610b10600782610d48565b156107e9576040516001600160a01b038216907fed998b960f6340d045f620c119730f7aa7995e7425c2401d3a5b64ff998a59e990600090a250565b81306001600160a01b03821603610b6257600080fd5b610b6d848484610e3e565b50505050565b6000610b7f8484610ac1565b90506000198114610b6d5781811015610bda5760405162461bcd60e51b815260206004820152601d60248201527f45524332303a20696e73756666696369656e7420616c6c6f77616e636500000060448201526064016106f4565b610b6d8484848403610b4c565b81306001600160a01b03821603610bfd57600080fd5b610b6d848484610f62565b6001600160a01b038216610c5e5760405162461bcd60e51b815260206004820152601f60248201527f45524332303a206d696e7420746f20746865207a65726f20616464726573730060448201526064016106f4565b8060026000828254610c7091906116c0565b90915550506001600160a01b038216600081815260208181526040808320805486019055518481527fddf252ad1be2c89b69c2b068fc378daa952ba7f163c4a11628f55a4df523b3ef910160405180910390a35050565b6107e93382611106565b6001600160a01b03811660009081526001830160205260408120541515610854565b6005546001600160a01b03163314610d465760405162461bcd60e51b815260206004820152601660248201527527b7363c9031b0b63630b1363290313c9037bbb732b960511b60448201526064016106f4565b565b6000610854836001600160a01b038416611238565b606060006108548361132b565b610d75823383610b73565b61094c8282611106565b6000610854836001600160a01b038416611387565b336001600160a01b03821603610dec5760405162461bcd60e51b815260206004820152601760248201527f43616e6e6f74207472616e7366657220746f2073656c6600000000000000000060448201526064016106f4565b600680546001600160a01b0319166001600160a01b03838116918217909255600554604051919216907fed8889f560326eb138920d842192f0eb3dd22b4f139c87a2c57538e05bae127890600090a350565b6001600160a01b038316610ea05760405162461bcd60e51b8152602060048201526024808201527f45524332303a20617070726f76652066726f6d20746865207a65726f206164646044820152637265737360e01b60648201526084016106f4565b6001600160a01b038216610f015760405162461bcd60e51b815260206004820152602260248201527f45524332303a20617070726f766520746f20746865207a65726f206164647265604482015261737360f01b60648201526084016106f4565b6001600160a01b0383811660008181526001602090815260408083209487168084529482529182902085905590518481527f8c5be1e5ebec7d5bd14f71427d1e84f3dd0314c0f7b2291e5b200ac8c7c3b925910160405180910390a3505050565b6001600160a01b038316610fc65760405162461bcd60e51b815260206004820152602560248201527f45524332303a207472616e736665722066726f6d20746865207a65726f206164604482015264647265737360d81b60648201526084016106f4565b6001600160a01b0382166110285760405162461bcd60e51b815260206004820152602360248201527f45524332303a207472616e7366657220746f20746865207a65726f206164647260448201526265737360e81b60648201526084016106f4565b6001600160a01b038316600090815260208190526040902054818110156110a05760405162461bcd60e51b815260206004820152602660248201527f45524332303a207472616e7366657220616d6f756e7420657863656564732062604482015265616c616e636560d01b60648201526084016106f4565b6001600160a01b03848116600081815260208181526040808320878703905593871680835291849020805487019055925185815290927fddf252ad1be2c89b69c2b068fc378daa952ba7f163c4a11628f55a4df523b3ef910160405180910390a3610b6d565b6001600160a01b0382166111665760405162461bcd60e51b815260206004820152602160248201527f45524332303a206275726e2066726f6d20746865207a65726f206164647265736044820152607360f81b60648201526084016106f4565b6001600160a01b038216600090815260208190526040902054818110156111da5760405162461bcd60e51b815260206004820152602260248201527f45524332303a206275726e20616d6f756e7420657863656564732062616c616e604482015261636560f01b60648201526084016106f4565b6001600160a01b0383166000818152602081815260408083208686039055600280548790039055518581529192917fddf252ad1be2c89b69c2b068fc378daa952ba7f163c4a11628f55a4df523b3ef910160405180910390a3505050565b6000818152600183016020526040812054801561132157600061125c600183611724565b855490915060009061127090600190611724565b90508181146112d557600086600001828154811061129057611290611737565b90600052602060002001549050808760000184815481106112b3576112b3611737565b6000918252602080832090910192909255918252600188019052604090208390555b85548690806112e6576112e661174d565b600190038181906000526020600020016000905590558560010160008681526020019081526020016000206000905560019350505050610504565b6000915050610504565b60608160000180548060200260200160405190810160405280929190818152602001828054801561137b57602002820191906000526020600020905b815481526020019060010190808311611367575b50505050509050919050565b60008181526001830160205260408120546113ce57508154600181810184556000848152602080822090930184905584548482528286019093526040902091909155610504565b506000610504565b6000602082840312156113e857600080fd5b81356001600160e01b03198116811461085457600080fd5b6000815180845260005b818110156114265760208185018101518683018201520161140a565b506000602082860101526020601f19601f83011685010191505092915050565b6020815260006108546020830184611400565b80356001600160a01b038116811461147057600080fd5b919050565b6000806040838503121561148857600080fd5b61149183611459565b946020939093013593505050565b6000806000606084860312156114b457600080fd5b6114bd84611459565b92506114cb60208501611459565b9150604084013590509250925092565b634e487b7160e01b600052604160045260246000fd5b60008060006060848603121561150657600080fd5b61150f84611459565b925060208401359150604084013567ffffffffffffffff8082111561153357600080fd5b818601915086601f83011261154757600080fd5b813581811115611559576115596114db565b604051601f8201601f19908116603f01168101908382118183101715611581576115816114db565b8160405282815289602084870101111561159a57600080fd5b8260208601602083013760006020848301015280955050505050509250925092565b6000602082840312156115ce57600080fd5b5035919050565b6000602082840312156115e757600080fd5b61085482611459565b6020808252825182820181905260009190848201906040850190845b818110156116315783516001600160a01b03168352928401929184019160010161160c565b50909695505050505050565b6000806040838503121561165057600080fd5b61165983611459565b915061166760208401611459565b90509250929050565b600181811c9082168061168457607f821691505b6020821081036116a457634e487b7160e01b600052602260045260246000fd5b50919050565b634e487b7160e01b600052601160045260246000fd5b80820180821115610504576105046116aa565b8281526040602082015260006116ec6040830184611400565b949350505050565b60018060a01b038416815282602082015260606040820152600061171b6060830184611400565b95945050505050565b81810381811115610504576105046116aa565b634e487b7160e01b600052603260045260246000fd5b634e487b7160e01b600052603160045260246000fdfea26469706673582212208b333025f0f373a6d723151802975fe3d28d30d2c4c0125ca820659f3f938c5164736f6c63430008130033","linkReferences":{}},"methodIdentifiers":{"acceptOwnership()":"79ba5097","allowance(address,address)":"dd62ed3e","approve(address,uint256)":"095ea7b3","balanceOf(address)":"70a08231","burn(address,uint256)":"9dc29fac","burn(uint256)":"42966c68","burnFrom(address,uint256)":"79cc6790","decimals()":"313ce567","decreaseAllowance(address,uint256)":"a457c2d7","decreaseApproval(address,uint256)":"66188463","getBurners()":"86fe8b43","getMinters()":"6b32810b","grantBurnRole(address)":"c64d0ebc","grantMintAndBurnRoles(address)":"c630948d","grantMintRole(address)":"c2e3273d","increaseAllowance(address,uint256)":"39509351","increaseApproval(address,uint256)":"d73dd623","isBurner(address)":"4334614a","isMinter(address)":"aa271e1a","maxSupply()":"d5abeb01","mint(address,uint256)":"40c10f19","name()":"06fdde03","owner()":"8da5cb5b","revokeBurnRole(address)":"4f5632f8","revokeMintRole(address)":"f81094f3","supportsInterface(bytes4)":"01ffc9a7","symbol()":"95d89b41","totalSupply()":"18160ddd","transfer(address,uint256)":"a9059cbb","transferAndCall(address,uint256,bytes)":"4000aea0","transferFrom(address,address,uint256)":"23b872dd","transferOwnership(address)":"f2fde38b"},"id":75}