{"abi":[{"type":"function","name":"acceptOwnership","inputs":[],"outputs":[],"stateMutability":"nonpayable"},{"type":"function","name":"lookup","inputs":[{"name":"","type":"string","internalType":"string"}],"outputs":[{"name":"","type":"address","internalType":"address"}],"stateMutability":"view"},{"type":"function","name":"owner","inputs":[],"outputs":[{"name":"","type":"address","internalType":"address"}],"stateMutability":"view"},{"type":"function","name":"register","inputs":[{"name":"_name","type":"string","internalType":"string"},{"name":"_address","type":"address","internalType":"address"}],"outputs":[],"stateMutability":"nonpayable"},{"type":"function","name":"setCrossChainNameServiceAddress","inputs":[{"name":"crossChainNameService","type":"address","internalType":"address"}],"outputs":[],"stateMutability":"nonpayable"},{"type":"function","name":"transferOwnership","inputs":[{"name":"to","type":"address","internalType":"address"}],"outputs":[],"stateMutability":"nonpayable"},{"type":"event","name":"OwnershipTransferRequested","inputs":[{"name":"from","type":"address","indexed":true,"internalType":"address"},{"name":"to","type":"address","indexed":true,"internalType":"address"}],"anonymous":false},{"type":"event","name":"OwnershipTransferred","inputs":[{"name":"from","type":"address","indexed":true,"internalType":"address"},{"name":"to","type":"address","indexed":true,"internalType":"address"}],"anonymous":false},{"type":"event","name":"Registered","inputs":[{"name":"_name","type":"string","indexed":true,"internalType":"string"},{"name":"_address","type":"address","indexed":true,"internalType":"address"}],"anonymous":false},{"type":"error","name":"AlreadyTaken","inputs":[]},{"type":"error","name":"Unauthorized","inputs":[]}],"bytecode":{"object":"0x608060405234801561001057600080fd5b5033806000816100675760405162461bcd60e51b815260206004820152601860248201527f43616e6e6f7420736574206f776e657220746f207a65726f000000000000000060448201526064015b60405180910390fd5b600080546001600160a01b0319166001600160a01b0384811691909117909155811615610097576100978161009f565b505050610148565b336001600160a01b038216036100f75760405162461bcd60e51b815260206004820152601760248201527f43616e6e6f74207472616e7366657220746f2073656c66000000000000000000604482015260640161005e565b600180546001600160a01b0319166001600160a01b0383811691821790925560008054604051929316917fed8889f560326eb138920d842192f0eb3dd22b4f139c87a2c57538e05bae12789190a350565b61069f806101576000396000f3fe608060405234801561001057600080fd5b50600436106100625760003560e01c80631e59c529146100675780636f2aba191461007c57806379ba50971461008f5780638da5cb5b14610097578063f2fde38b146100c0578063f67187ac146100d3575b600080fd5b61007a610075366004610538565b610107565b005b61007a61008a366004610586565b6101e9565b61007a61024d565b6000546001600160a01b03165b6040516001600160a01b03909116815260200160405180910390f35b61007a6100ce366004610586565b6102fc565b6100a46100e13660046105a8565b80516020818301810180516002825292820191909301209152546001600160a01b031681565b6003546001600160a01b03163314801590610136575073f62849f9a0b5bf2913b396098f7c7019b51a820a3314155b15610153576040516282b42960e81b815260040160405180910390fd5b60006001600160a01b031660028360405161016e9190610609565b908152604051908190036020019020546001600160a01b0316146101a557604051630c0e5cf760e21b815260040160405180910390fd5b806002836040516101b69190610609565b90815260405190819003602001902080546001600160a01b03929092166001600160a01b03199092169190911790555050565b6101f161030d565b600380546001600160a01b0319166001600160a01b03831617905560408051808201909152601e81527f53657474696e6720617574686f72697a6564206164647265737320746f3a0000602082015261024a9082610362565b50565b6001546001600160a01b031633146102a55760405162461bcd60e51b815260206004820152601660248201527526bab9ba10313290383937b837b9b2b21037bbb732b960511b60448201526064015b60405180910390fd5b60008054336001600160a01b0319808316821784556001805490911690556040516001600160a01b0390921692909183917f8be0079c531659141344cd1fd0a4f28419497f9722a3daafe3b4186f6b6457e091a350565b61030461030d565b61024a816103ab565b6000546001600160a01b031633146103605760405162461bcd60e51b815260206004820152601660248201527527b7363c9031b0b63630b1363290313c9037bbb732b960511b604482015260640161029c565b565b6103a78282604051602401610378929190610625565b60408051601f198184030181529190526020810180516001600160e01b031663319af33360e01b179052610454565b5050565b336001600160a01b038216036104035760405162461bcd60e51b815260206004820152601760248201527f43616e6e6f74207472616e7366657220746f2073656c66000000000000000000604482015260640161029c565b600180546001600160a01b0319166001600160a01b0383811691821790925560008054604051929316917fed8889f560326eb138920d842192f0eb3dd22b4f139c87a2c57538e05bae12789190a350565b61024a8180516a636f6e736f6c652e6c6f67602083016000808483855afa5050505050565b634e487b7160e01b600052604160045260246000fd5b600082601f8301126104a057600080fd5b813567ffffffffffffffff808211156104bb576104bb610479565b604051601f8301601f19908116603f011681019082821181831017156104e3576104e3610479565b816040528381528660208588010111156104fc57600080fd5b836020870160208301376000602085830101528094505050505092915050565b80356001600160a01b038116811461053357600080fd5b919050565b6000806040838503121561054b57600080fd5b823567ffffffffffffffff81111561056257600080fd5b61056e8582860161048f565b92505061057d6020840161051c565b90509250929050565b60006020828403121561059857600080fd5b6105a18261051c565b9392505050565b6000602082840312156105ba57600080fd5b813567ffffffffffffffff8111156105d157600080fd5b6105dd8482850161048f565b949350505050565b60005b838110156106005781810151838201526020016105e8565b50506000910152565b6000825161061b8184602087016105e5565b9190910192915050565b60408152600083518060408401526106448160608501602088016105e5565b6001600160a01b0393909316602083015250601f91909101601f19160160600191905056fea2646970667358221220f410d0a1a86697b7cddf0698a33fa3b4a34f6976c96e9248602d358250e4f11264736f6c63430008130033","linkReferences":{}},"methodIdentifiers":{"acceptOwnership()":"79ba5097","lookup(string)":"f67187ac","owner()":"8da5cb5b","register(string,address)":"1e59c529","setCrossChainNameServiceAddress(address)":"6f2aba19","transferOwnership(address)":"f2fde38b"},"id":0}