{"abi":[{"type":"function","name":"DEFAULT_GAS_LIMIT","inputs":[],"outputs":[{"name":"","type":"uint64","internalType":"uint64"}],"stateMutability":"view"},{"type":"function","name":"GAS_FOR_CALL_EXACT_CHECK","inputs":[],"outputs":[{"name":"","type":"uint16","internalType":"uint16"}],"stateMutability":"view"},{"type":"function","name":"ccipSend","inputs":[{"name":"","type":"uint64","internalType":"uint64"},{"name":"message","type":"tuple","internalType":"struct Client.EVM2AnyMessage","components":[{"name":"receiver","type":"bytes","internalType":"bytes"},{"name":"data","type":"bytes","internalType":"bytes"},{"name":"tokenAmounts","type":"tuple[]","internalType":"struct Client.EVMTokenAmount[]","components":[{"name":"token","type":"address","internalType":"address"},{"name":"amount","type":"uint256","internalType":"uint256"}]},{"name":"feeToken","type":"address","internalType":"address"},{"name":"extraArgs","type":"bytes","internalType":"bytes"}]}],"outputs":[{"name":"","type":"bytes32","internalType":"bytes32"}],"stateMutability":"payable"},{"type":"function","name":"getFee","inputs":[{"name":"","type":"uint64","internalType":"uint64"},{"name":"","type":"tuple","internalType":"struct Client.EVM2AnyMessage","components":[{"name":"receiver","type":"bytes","internalType":"bytes"},{"name":"data","type":"bytes","internalType":"bytes"},{"name":"tokenAmounts","type":"tuple[]","internalType":"struct Client.EVMTokenAmount[]","components":[{"name":"token","type":"address","internalType":"address"},{"name":"amount","type":"uint256","internalType":"uint256"}]},{"name":"feeToken","type":"address","internalType":"address"},{"name":"extraArgs","type":"bytes","internalType":"bytes"}]}],"outputs":[{"name":"fee","type":"uint256","internalType":"uint256"}],"stateMutability":"pure"},{"type":"function","name":"getOnRamp","inputs":[{"name":"","type":"uint64","internalType":"uint64"}],"outputs":[{"name":"onRampAddress","type":"address","internalType":"address"}],"stateMutability":"pure"},{"type":"function","name":"getSupportedTokens","inputs":[{"name":"","type":"uint64","internalType":"uint64"}],"outputs":[{"name":"tokens","type":"address[]","internalType":"address[]"}],"stateMutability":"pure"},{"type":"function","name":"isChainSupported","inputs":[{"name":"","type":"uint64","internalType":"uint64"}],"outputs":[{"name":"supported","type":"bool","internalType":"bool"}],"stateMutability":"pure"},{"type":"function","name":"isOffRamp","inputs":[{"name":"","type":"uint64","internalType":"uint64"},{"name":"","type":"address","internalType":"address"}],"outputs":[{"name":"","type":"bool","internalType":"bool"}],"stateMutability":"pure"},{"type":"function","name":"routeMessage","inputs":[{"name":"message","type":"tuple","internalType":"struct Client.Any2EVMMessage","components":[{"name":"messageId","type":"bytes32","internalType":"bytes32"},{"name":"sourceChainSelector","type":"uint64","internalType":"uint64"},{"name":"sender","type":"bytes","internalType":"bytes"},{"name":"data","type":"bytes","internalType":"bytes"},{"name":"destTokenAmounts","type":"tuple[]","internalType":"struct Client.EVMTokenAmount[]","components":[{"name":"token","type":"address","internalType":"address"},{"name":"amount","type":"uint256","internalType":"uint256"}]}]},{"name":"gasForCallExactCheck","type":"uint16","internalType":"uint16"},{"name":"gasLimit","type":"uint256","internalType":"uint256"},{"name":"receiver","type":"address","internalType":"address"}],"outputs":[{"name":"success","type":"bool","internalType":"bool"},{"name":"retData","type":"bytes","internalType":"bytes"},{"name":"gasUsed","type":"uint256","internalType":"uint256"}],"stateMutability":"nonpayable"},{"type":"event","name":"MessageExecuted","inputs":[{"name":"messageId","type":"bytes32","indexed":false,"internalType":"bytes32"},{"name":"sourceChainSelector","type":"uint64","indexed":false,"internalType":"uint64"},{"name":"offRamp","type":"address","indexed":false,"internalType":"address"},{"name":"calldataHash","type":"bytes32","indexed":false,"internalType":"bytes32"}],"anonymous":false},{"type":"event","name":"MsgExecuted","inputs":[{"name":"success","type":"bool","indexed":false,"internalType":"bool"},{"name":"retData","type":"bytes","indexed":false,"internalType":"bytes"},{"name":"gasUsed","type":"uint256","indexed":false,"internalType":"uint256"}],"anonymous":false},{"type":"error","name":"InsufficientFeeTokenAmount","inputs":[]},{"type":"error","name":"InvalidAddress","inputs":[{"name":"encodedAddress","type":"bytes","internalType":"bytes"}]},{"type":"error","name":"InvalidExtraArgsTag","inputs":[]},{"type":"error","name":"InvalidMsgValue","inputs":[]},{"type":"error","name":"OnlyOffRamp","inputs":[]},{"type":"error","name":"ReceiverError","inputs":[{"name":"error","type":"bytes","internalType":"bytes"}]},{"type":"error","name":"UnsupportedDestinationChain","inputs":[{"name":"destChainSelector","type":"uint64","internalType":"uint64"}]}],"bytecode":{"object":"0x608060405234801561001057600080fd5b5061158a806100206000396000f3fe6080604052600436106100865760003560e01c8063a48a905811610059578063a48a905814610133578063a8d87a3b14610154578063d6be695a14610190578063ee18e0d3146101bf578063fbca3b74146101e857600080fd5b806320487ded1461008b5780633cf97983146100be57806383826b2b146100ed57806396f4e9f914610120575b600080fd5b34801561009757600080fd5b506100ab6100a6366004610d27565b610223565b6040519081526020015b60405180910390f35b3480156100ca57600080fd5b506100de6100d9366004610e3b565b61022c565b6040516100b593929190610efb565b3480156100f957600080fd5b50610110610108366004610f26565b600192915050565b60405190151581526020016100b5565b6100ab61012e366004610f59565b610256565b34801561013f57600080fd5b5061011061014e366004610fa6565b50600190565b34801561016057600080fd5b5061017861016f366004610fa6565b5063499602d290565b6040516001600160a01b0390911681526020016100b5565b34801561019c57600080fd5b506101a762030d4081565b6040516001600160401b0390911681526020016100b5565b3480156101cb57600080fd5b506101d561138881565b60405161ffff90911681526020016100b5565b3480156101f457600080fd5b50610216610203366004610fa6565b5060408051600081526020810190915290565b6040516100b59190610fc1565b60005b92915050565b600060608161024561023d8861100e565b8787876104e9565b9250925092505b9450945094915050565b600061026282806110ba565b90506020146102995761027582806110ba565b60405163370d875f60e01b8152600401610290929190611130565b60405180910390fd5b60006102a583806110ba565b8101906102b29190611144565b90506001600160a01b038111806102c95750600a81105b156102d85761027583806110ba565b8060006102f06102eb60808701876110ba565b610646565b60000151905060008560405160200161030991906111f3565b60408051808303601f19018152828252805160209182012060a08401835280845267de41ba4fc9d91ad9828501528251338184015283518082038401815290840184529284019290925290925060009190606082019061036b908a018a6110ba565b8080601f0160208091040260200160405190810160405280939291908181526020018383808284376000920191909152505050908252506020016103b260408a018a6112f2565b808060200260200160405190810160405280939291908181526020016000905b828210156103fe576103ef6040830286013681900381019061133b565b815260200190600101906103d2565b5050505050815250905060005b61041860408901896112f2565b90508110156104a457610494338661043360408c018c6112f2565b8581811061044357610443611357565b905060400201602001358b806040019061045d91906112f2565b8681811061046d5761046d611357565b610483926020604090920201908101915061136d565b6001600160a01b03169291906106d0565b61049d81611388565b905061040b565b506000806104b68361138887896104e9565b5091509150816104db57806040516302a35ba360e21b815260040161029091906113af565b509198975050505050505050565b60006060816001600160a01b0384163b158061051c575061051a6001600160a01b0385166385572ffb60e01b610730565b155b1561053c575050604080516020810190915260008082526001925061024c565b60006385572ffb60e01b8860405160240161055791906113c2565b60408051601f198184030181529190526020810180516001600160e01b03166001600160e01b03199093169290921790915290506105998186888a608461074c565b60405192965090945092507fa8b0355886b5b7a28bb97e4f0a24feb172618407402721c4012d8b7c6433102f906105d590869086908690610efb565b60405180910390a187516020808a0151835184830120604080519485526001600160401b0390921692840192909252339083015260608201527f9b877de93ea9895756e337442c657f95a34fc68e7eb988bdfa693d5be83016b69060800160405180910390a1509450945094915050565b60408051602081019091526000815260008290036106755750604080516020810190915262030d408152610226565b6397a657c960e01b610687838561147b565b6001600160e01b031916146106af57604051632923fee760e11b815260040160405180910390fd5b6106bc82600481866114ab565b8101906106c991906114d5565b9392505050565b604080516001600160a01b0385811660248301528416604482015260648082018490528251808303909101815260849091019091526020810180516001600160e01b03166323b872dd60e01b17905261072a908590610826565b50505050565b600061073b836108fd565b80156106c957506106c98383610930565b6000606060008361ffff166001600160401b0381111561076e5761076e610b55565b6040519080825280601f01601f191660200182016040528015610798576020820181803683370190505b509150863b6107b25763030ed58f60e21b60005260046000fd5b5a858110156107cc57632be8ca8b60e21b60005260046000fd5b85900360408104810387106107ec576337c3be2960e01b60005260046000fd5b505a6000808a5160208c0160008c8cf193505a900390503d8481111561080f5750835b808352806000602085013e50955095509592505050565b600061087b826040518060400160405280602081526020017f5361666545524332303a206c6f772d6c6576656c2063616c6c206661696c6564815250856001600160a01b03166109b99092919063ffffffff16565b8051909150156108f857808060200190518101906108999190611516565b6108f85760405162461bcd60e51b815260206004820152602a60248201527f5361666545524332303a204552433230206f7065726174696f6e20646964206e6044820152691bdd081cdd58d8d9595960b21b6064820152608401610290565b505050565b6000610910826301ffc9a760e01b610930565b80156102265750610929826001600160e01b0319610930565b1592915050565b604080516001600160e01b03198316602480830191909152825180830390910181526044909101909152602080820180516001600160e01b03166301ffc9a760e01b178152825160009392849283928392918391908a617530fa92503d915060005190508280156109a2575060208210155b80156109ae5750600081115b979650505050505050565b60606109c884846000856109d0565b949350505050565b606082471015610a315760405162461bcd60e51b815260206004820152602660248201527f416464726573733a20696e73756666696369656e742062616c616e636520666f6044820152651c8818d85b1b60d21b6064820152608401610290565b600080866001600160a01b03168587604051610a4d9190611538565b60006040518083038185875af1925050503d8060008114610a8a576040519150601f19603f3d011682016040523d82523d6000602084013e610a8f565b606091505b50915091506109ae8783838760608315610b0a578251600003610b03576001600160a01b0385163b610b035760405162461bcd60e51b815260206004820152601d60248201527f416464726573733a2063616c6c20746f206e6f6e2d636f6e74726163740000006044820152606401610290565b50816109c8565b6109c88383815115610b1f5781518083602001fd5b8060405162461bcd60e51b815260040161029091906113af565b80356001600160401b0381168114610b5057600080fd5b919050565b634e487b7160e01b600052604160045260246000fd5b60405160a081016001600160401b0381118282101715610b8d57610b8d610b55565b60405290565b604051601f8201601f191681016001600160401b0381118282101715610bbb57610bbb610b55565b604052919050565b600082601f830112610bd457600080fd5b81356001600160401b03811115610bed57610bed610b55565b610c00601f8201601f1916602001610b93565b818152846020838601011115610c1557600080fd5b816020850160208301376000918101602001919091529392505050565b80356001600160a01b0381168114610b5057600080fd5b600060408284031215610c5b57600080fd5b604051604081018181106001600160401b0382111715610c7d57610c7d610b55565b604052905080610c8c83610c32565b8152602083013560208201525092915050565b600082601f830112610cb057600080fd5b813560206001600160401b03821115610ccb57610ccb610b55565b610cd9818360051b01610b93565b82815260069290921b84018101918181019086841115610cf857600080fd5b8286015b84811015610d1c57610d0e8882610c49565b835291830191604001610cfc565b509695505050505050565b60008060408385031215610d3a57600080fd5b610d4383610b39565b915060208301356001600160401b0380821115610d5f57600080fd5b9084019060a08287031215610d7357600080fd5b610d7b610b6b565b823582811115610d8a57600080fd5b610d9688828601610bc3565b825250602083013582811115610dab57600080fd5b610db788828601610bc3565b602083015250604083013582811115610dcf57600080fd5b610ddb88828601610c9f565b604083015250610ded60608401610c32565b6060820152608083013582811115610e0457600080fd5b610e1088828601610bc3565b6080830152508093505050509250929050565b600060a08284031215610e3557600080fd5b50919050565b60008060008060808587031215610e5157600080fd5b84356001600160401b03811115610e6757600080fd5b610e7387828801610e23565b945050602085013561ffff81168114610e8b57600080fd5b925060408501359150610ea060608601610c32565b905092959194509250565b60005b83811015610ec6578181015183820152602001610eae565b50506000910152565b60008151808452610ee7816020860160208601610eab565b601f01601f19169290920160200192915050565b8315158152606060208201526000610f166060830185610ecf565b9050826040830152949350505050565b60008060408385031215610f3957600080fd5b610f4283610b39565b9150610f5060208401610c32565b90509250929050565b60008060408385031215610f6c57600080fd5b610f7583610b39565b915060208301356001600160401b03811115610f9057600080fd5b610f9c85828601610e23565b9150509250929050565b600060208284031215610fb857600080fd5b6106c982610b39565b6020808252825182820181905260009190848201906040850190845b818110156110025783516001600160a01b031683529284019291840191600101610fdd565b50909695505050505050565b600060a0823603121561102057600080fd5b611028610b6b565b8235815261103860208401610b39565b602082015260408301356001600160401b038082111561105757600080fd5b61106336838701610bc3565b6040840152606085013591508082111561107c57600080fd5b61108836838701610bc3565b606084015260808501359150808211156110a157600080fd5b506110ae36828601610c9f565b60808301525092915050565b6000808335601e198436030181126110d157600080fd5b8301803591506001600160401b038211156110eb57600080fd5b60200191503681900382131561110057600080fd5b9250929050565b81835281816020850137506000828201602090810191909152601f909101601f19169091010190565b6020815260006109c8602083018486611107565b60006020828403121561115657600080fd5b5035919050565b6000808335601e1984360301811261117457600080fd5b83016020810192503590506001600160401b0381111561119357600080fd5b80360382131561110057600080fd5b8183526000602080850194508260005b858110156111e8576001600160a01b036111cb83610c32565b1687528183013583880152604096870196909101906001016111b2565b509495945050505050565b602081526000611203838461115d565b60a0602085015261121860c085018284611107565b915050611228602085018561115d565b601f1980868503016040870152611240848385611107565b935060408701359250601e1987360301831261125b57600080fd5b6020928701928301923591506001600160401b0382111561127b57600080fd5b8160061b360383131561128d57600080fd5b808685030160608701526112a28483856111a2565b93506112b060608801610c32565b6001600160a01b038116608088015292506112ce608088018861115d565b93509150808685030160a0870152506112e8838383611107565b9695505050505050565b6000808335601e1984360301811261130957600080fd5b8301803591506001600160401b0382111561132357600080fd5b6020019150600681901b360382131561110057600080fd5b60006040828403121561134d57600080fd5b6106c98383610c49565b634e487b7160e01b600052603260045260246000fd5b60006020828403121561137f57600080fd5b6106c982610c32565b6000600182016113a857634e487b7160e01b600052601160045260246000fd5b5060010190565b6020815260006106c96020830184610ecf565b600060208083528351818401528084015160406001600160401b0382168186015280860151915060a060608601526113fd60c0860183610ecf565b91506060860151601f198087850301608088015261141b8483610ecf565b608089015188820390920160a089015281518082529186019450600092508501905b8083101561146f57845180516001600160a01b031683528601518683015293850193600192909201919083019061143d565b50979650505050505050565b6001600160e01b031981358181169160048510156114a35780818660040360031b1b83161692505b505092915050565b600080858511156114bb57600080fd5b838611156114c857600080fd5b5050820193919092039150565b6000602082840312156114e757600080fd5b604051602081018181106001600160401b038211171561150957611509610b55565b6040529135825250919050565b60006020828403121561152857600080fd5b815180151581146106c957600080fd5b6000825161154a818460208701610eab565b919091019291505056fea2646970667358221220a56427782a38d14f3ae5276050b5645a3b077d97381b20ee5f255d7101e0f6c664736f6c63430008130033","linkReferences":{}},"methodIdentifiers":{"DEFAULT_GAS_LIMIT()":"d6be695a","GAS_FOR_CALL_EXACT_CHECK()":"ee18e0d3","ccipSend(uint64,(bytes,bytes,(address,uint256)[],address,bytes))":"96f4e9f9","getFee(uint64,(bytes,bytes,(address,uint256)[],address,bytes))":"20487ded","getOnRamp(uint64)":"a8d87a3b","getSupportedTokens(uint64)":"fbca3b74","isChainSupported(uint64)":"a48a9058","isOffRamp(uint64,address)":"83826b2b","routeMessage((bytes32,uint64,bytes,bytes,(address,uint256)[]),uint16,uint256,address)":"3cf97983"},"id":67}