{"abi":[{"type":"constructor","inputs":[],"stateMutability":"nonpayable"},{"type":"function","name":"configuration","inputs":[],"outputs":[{"name":"chainSelector_","type":"uint64","internalType":"uint64"},{"name":"sourceRouter_","type":"address","internalType":"contract IRouterClient"},{"name":"destinationRouter_","type":"address","internalType":"contract IRouterClient"},{"name":"wrappedNative_","type":"address","internalType":"contract WETH9"},{"name":"linkToken_","type":"address","internalType":"contract LinkToken"},{"name":"ccipBnM_","type":"address","internalType":"contract BurnMintERC677Helper"},{"name":"ccipLnM_","type":"address","internalType":"contract BurnMintERC677Helper"}],"stateMutability":"view"},{"type":"function","name":"getSupportedTokens","inputs":[{"name":"chainSelector","type":"uint64","internalType":"uint64"}],"outputs":[{"name":"tokens","type":"address[]","internalType":"address[]"}],"stateMutability":"view"},{"type":"function","name":"isChainSupported","inputs":[{"name":"chainSelector","type":"uint64","internalType":"uint64"}],"outputs":[{"name":"supported","type":"bool","internalType":"bool"}],"stateMutability":"pure"},{"type":"function","name":"requestLinkFromFaucet","inputs":[{"name":"to","type":"address","internalType":"address"},{"name":"amount","type":"uint256","internalType":"uint256"}],"outputs":[{"name":"success","type":"bool","internalType":"bool"}],"stateMutability":"nonpayable"},{"type":"function","name":"supportNewToken","inputs":[{"name":"tokenAddress","type":"address","internalType":"address"}],"outputs":[],"stateMutability":"nonpayable"}],"bytecode":{"object":"0x61012060405234801561001157600080fd5b5060405161001e90610195565b604051809103906000f08015801561003a573d6000803e3d6000fd5b506001600160a01b0316608052604051610053906101a2565b604051809103906000f08015801561006f573d6000803e3d6000fd5b506001600160a01b031660a052604051610088906101af565b610091906101c9565b604051809103906000f0801580156100ad573d6000803e3d6000fd5b506001600160a01b031660c0526040516100c6906101af565b6100cf9061021f565b604051809103906000f0801580156100eb573d6000803e3d6000fd5b506001600160a01b031660e052604051610104906101bc565b604051809103906000f080158015610120573d6000803e3d6000fd5b506001600160a01b039081166101005260c05160008054600181810183558280527f290decd9548b62a8d60345a988386fc84ba6bc95484008f6362f93160ef3e56391820180549486166001600160a01b031995861617905560e051835491820190935501805491909316911617905561026e565b6109b88061073083390190565b610da5806110e883390190565b611c4080611e8d83390190565b6115aa80613acd83390190565b6040815260006101f1604083016008815267434349502d426e4d60c01b602082015260400190565b8281036020840152610218816008815267434349502d426e4d60c01b602082015260400190565b9392505050565b604081526000610247604083016008815267434349502d4c6e4d60c01b602082015260400190565b8281036020840152610218816008815267434349502d4c6e4d60c01b602082015260400190565b60805160a05160c05160e0516101005161047a6102b66000396000609d015260006101460152600061011e01526000818160f601526102430152600060ce015261047a6000f3fe608060405234801561001057600080fd5b50600436106100575760003560e01c8063657b9a4e1461005c5780636c70bee914610084578063a48a905814610176578063cf8381401461019b578063fbca3b74146101fa575b600080fd5b61006f61006a366004610366565b61021a565b60405190151581526020015b60405180910390f35b6040805167de41ba4fc9d91ad981526001600160a01b037f0000000000000000000000000000000000000000000000000000000000000000811660208301819052928201929092527f0000000000000000000000000000000000000000000000000000000000000000821660608201527f0000000000000000000000000000000000000000000000000000000000000000821660808201527f0000000000000000000000000000000000000000000000000000000000000000821660a08201527f00000000000000000000000000000000000000000000000000000000000000009190911660c082015260e00161007b565b61006f610184366004610390565b67ffffffffffffffff1667de41ba4fc9d91ad91490565b6101f86101a93660046103ba565b600080546001810182559080527f290decd9548b62a8d60345a988386fc84ba6bc95484008f6362f93160ef3e5630180546001600160a01b0319166001600160a01b0392909216919091179055565b005b61020d610208366004610390565b6102b9565b60405161007b91906103d5565b60405163a9059cbb60e01b81526001600160a01b038381166004830152602482018390526000917f00000000000000000000000000000000000000000000000000000000000000009091169063a9059cbb906044016020604051808303816000875af115801561028e573d6000803e3d6000fd5b505050506040513d601f19601f820116820180604052508101906102b29190610422565b9392505050565b606067de41ba4fc9d91ad967ffffffffffffffff8316146102e857505060408051600081526020810190915290565b600080548060200260200160405190810160405280929190818152602001828054801561033e57602002820191906000526020600020905b81546001600160a01b03168152600190910190602001808311610320575b50505050509050919050565b80356001600160a01b038116811461036157600080fd5b919050565b6000806040838503121561037957600080fd5b6103828361034a565b946020939093013593505050565b6000602082840312156103a257600080fd5b813567ffffffffffffffff811681146102b257600080fd5b6000602082840312156103cc57600080fd5b6102b28261034a565b6020808252825182820181905260009190848201906040850190845b818110156104165783516001600160a01b0316835292840192918401916001016103f1565b50909695505050505050565b60006020828403121561043457600080fd5b815180151581146102b257600080fdfea2646970667358221220fdeee18cca6bc381fd8e331146754c41676a2bebb74ff34c9eb71eec2ea3a54364736f6c6343000813003360c0604052600d60809081526c2bb930b83832b21022ba3432b960991b60a05260009061002c9082610114565b506040805180820190915260048152630ae8aa8960e31b60208201526001906100559082610114565b506002805460ff1916601217905534801561006f57600080fd5b506101d3565b634e487b7160e01b600052604160045260246000fd5b600181811c9082168061009f57607f821691505b6020821081036100bf57634e487b7160e01b600052602260045260246000fd5b50919050565b601f82111561010f57600081815260208120601f850160051c810160208610156100ec5750805b601f850160051c820191505b8181101561010b578281556001016100f8565b5050505b505050565b81516001600160401b0381111561012d5761012d610075565b6101418161013b845461008b565b846100c5565b602080601f831160018114610176576000841561015e5750858301515b600019600386901b1c1916600185901b17855561010b565b600085815260208120601f198616915b828110156101a557888601518255948401946001909101908401610186565b50858210156101c35787850151600019600388901b60f8161c191681555b5050505050600190811b01905550565b6107d6806101e26000396000f3fe6080604052600436106100a05760003560e01c8063313ce56711610064578063313ce5671461016c57806370a082311461019857806395d89b41146101c5578063a9059cbb146101da578063d0e30db0146101fa578063dd62ed3e1461020257600080fd5b806306fdde03146100b4578063095ea7b3146100df57806318160ddd1461010f57806323b872dd1461012c5780632e1a7d4d1461014c57600080fd5b366100af576100ad61023a565b005b600080fd5b3480156100c057600080fd5b506100c9610295565b6040516100d691906105f3565b60405180910390f35b3480156100eb57600080fd5b506100ff6100fa36600461065d565b610323565b60405190151581526020016100d6565b34801561011b57600080fd5b50475b6040519081526020016100d6565b34801561013857600080fd5b506100ff610147366004610687565b610390565b34801561015857600080fd5b506100ad6101673660046106c3565b610522565b34801561017857600080fd5b506002546101869060ff1681565b60405160ff90911681526020016100d6565b3480156101a457600080fd5b5061011e6101b33660046106dc565b60036020526000908152604090205481565b3480156101d157600080fd5b506100c96105c8565b3480156101e657600080fd5b506100ff6101f536600461065d565b6105d5565b6100ad6105e9565b34801561020e57600080fd5b5061011e61021d3660046106f7565b600460209081526000928352604080842090915290825290205481565b3360009081526003602052604081208054349290610259908490610740565b909155505060405134815233907fe1fffcc4923d04b559f4d29a8bfc6cda04eb5b0d3c460751c2402c5c5cc9109c9060200160405180910390a2565b600080546102a290610753565b80601f01602080910402602001604051908101604052809291908181526020018280546102ce90610753565b801561031b5780601f106102f05761010080835404028352916020019161031b565b820191906000526020600020905b8154815290600101906020018083116102fe57829003601f168201915b505050505081565b3360008181526004602090815260408083206001600160a01b038716808552925280832085905551919290917f8c5be1e5ebec7d5bd14f71427d1e84f3dd0314c0f7b2291e5b200ac8c7c3b9259061037e9086815260200190565b60405180910390a35060015b92915050565b6001600160a01b0383166000908152600360205260408120548211156103b557600080fd5b6001600160a01b038416331480159061040157506001600160a01b03841660009081526004602090815260408083203384529091529020546fffffffffffffffffffffffffffffffff14155b1561046f576001600160a01b038416600090815260046020908152604080832033845290915290205482111561043657600080fd5b6001600160a01b03841660009081526004602090815260408083203384529091528120805484929061046990849061078d565b90915550505b6001600160a01b0384166000908152600360205260408120805484929061049790849061078d565b90915550506001600160a01b038316600090815260036020526040812080548492906104c4908490610740565b92505081905550826001600160a01b0316846001600160a01b03167fddf252ad1be2c89b69c2b068fc378daa952ba7f163c4a11628f55a4df523b3ef8460405161051091815260200190565b60405180910390a35060019392505050565b3360009081526003602052604090205481111561053e57600080fd5b336000908152600360205260408120805483929061055d90849061078d565b9091555050604051339082156108fc029083906000818181858888f1935050505015801561058f573d6000803e3d6000fd5b5060405181815233907f7fcf532c15f0a6db0bd6d0e038bea71d30d808c7d98cb3bf7268a95bf5081b659060200160405180910390a250565b600180546102a290610753565b60006105e2338484610390565b9392505050565b6105f161023a565b565b600060208083528351808285015260005b8181101561062057858101830151858201604001528201610604565b506000604082860101526040601f19601f8301168501019250505092915050565b80356001600160a01b038116811461065857600080fd5b919050565b6000806040838503121561067057600080fd5b61067983610641565b946020939093013593505050565b60008060006060848603121561069c57600080fd5b6106a584610641565b92506106b360208501610641565b9150604084013590509250925092565b6000602082840312156106d557600080fd5b5035919050565b6000602082840312156106ee57600080fd5b6105e282610641565b6000806040838503121561070a57600080fd5b61071383610641565b915061072160208401610641565b90509250929050565b634e487b7160e01b600052601160045260246000fd5b8082018082111561038a5761038a61072a565b600181811c9082168061076757607f821691505b60208210810361078757634e487b7160e01b600052602260045260246000fd5b50919050565b8181038181111561038a5761038a61072a56fea2646970667358221220b2336c8ca5f5c56e4bb5e03c3fb5634390c61bc22f3b45feda4292c13511016664736f6c6343000813003360806040523480156200001157600080fd5b506040518060400160405280600f81526020016e21b430b4b72634b735902a37b5b2b760891b815250604051806040016040528060048152602001634c494e4b60e01b815250818181600390816200006a91906200021d565b5060046200007982826200021d565b50505050506200008e6200009460201b60201c565b62000311565b620000ac336b033b2e3c9fd0803ce8000000620000ae565b565b6001600160a01b038216620001095760405162461bcd60e51b815260206004820152601f60248201527f45524332303a206d696e7420746f20746865207a65726f206164647265737300604482015260640160405180910390fd5b80600260008282546200011d9190620002e9565b90915550506001600160a01b038216600081815260208181526040808320805486019055518481527fddf252ad1be2c89b69c2b068fc378daa952ba7f163c4a11628f55a4df523b3ef910160405180910390a35050565b505050565b634e487b7160e01b600052604160045260246000fd5b600181811c90821680620001a457607f821691505b602082108103620001c557634e487b7160e01b600052602260045260246000fd5b50919050565b601f8211156200017457600081815260208120601f850160051c81016020861015620001f45750805b601f850160051c820191505b81811015620002155782815560010162000200565b505050505050565b81516001600160401b0381111562000239576200023962000179565b62000251816200024a84546200018f565b84620001cb565b602080601f831160018114620002895760008415620002705750858301515b600019600386901b1c1916600185901b17855562000215565b600085815260208120601f198616915b82811015620002ba5788860151825594840194600190910190840162000299565b5085821015620002d95787850151600019600388901b60f8161c191681555b5050505050600190811b01905550565b808201808211156200030b57634e487b7160e01b600052601160045260246000fd5b92915050565b610a8480620003216000396000f3fe608060405234801561001057600080fd5b50600436106100b45760003560e01c80634000aea0116100715780634000aea01461014157806370a082311461015457806395d89b411461017d578063a457c2d714610185578063a9059cbb14610198578063dd62ed3e146101ab57600080fd5b806306fdde03146100b9578063095ea7b3146100d757806318160ddd146100fa57806323b872dd1461010c578063313ce5671461011f578063395093511461012e575b600080fd5b6100c16101be565b6040516100ce91906107d7565b60405180910390f35b6100ea6100e536600461080d565b610250565b60405190151581526020016100ce565b6002545b6040519081526020016100ce565b6100ea61011a366004610837565b61026a565b604051601281526020016100ce565b6100ea61013c36600461080d565b61028e565b6100ea61014f366004610889565b6102b0565b6100fe610162366004610954565b6001600160a01b031660009081526020819052604090205490565b6100c1610387565b6100ea61019336600461080d565b610396565b6100ea6101a636600461080d565b610416565b6100fe6101b936600461096f565b610424565b6060600380546101cd906109a2565b80601f01602080910402602001604051908101604052809291908181526020018280546101f9906109a2565b80156102465780601f1061021b57610100808354040283529160200191610246565b820191906000526020600020905b81548152906001019060200180831161022957829003601f168201915b5050505050905090565b60003361025e81858561044f565b60019150505b92915050565b600033610278858285610573565b6102838585856105ed565b506001949350505050565b60003361025e8185856102a18383610424565b6102ab91906109dc565b61044f565b60006102bc8484610416565b50836001600160a01b0316336001600160a01b03167fe19260aff97b920c7df27010903aeb9c8d2be5d310a2c67824cf3f15396e4c1685856040516103029291906109fd565b60405180910390a36001600160a01b0384163b1561037d57604051635260769b60e11b81526001600160a01b0385169063a4c0ed369061034a90339087908790600401610a1e565b600060405180830381600087803b15801561036457600080fd5b505af1158015610378573d6000803e3d6000fd5b505050505b5060019392505050565b6060600480546101cd906109a2565b600033816103a48286610424565b9050838110156104095760405162461bcd60e51b815260206004820152602560248201527f45524332303a2064656372656173656420616c6c6f77616e63652062656c6f77604482015264207a65726f60d81b60648201526084015b60405180910390fd5b610283828686840361044f565b60003361025e8185856105ed565b6001600160a01b03918216600090815260016020908152604080832093909416825291909152205490565b6001600160a01b0383166104b15760405162461bcd60e51b8152602060048201526024808201527f45524332303a20617070726f76652066726f6d20746865207a65726f206164646044820152637265737360e01b6064820152608401610400565b6001600160a01b0382166105125760405162461bcd60e51b815260206004820152602260248201527f45524332303a20617070726f766520746f20746865207a65726f206164647265604482015261737360f01b6064820152608401610400565b6001600160a01b0383811660008181526001602090815260408083209487168084529482529182902085905590518481527f8c5be1e5ebec7d5bd14f71427d1e84f3dd0314c0f7b2291e5b200ac8c7c3b925910160405180910390a3505050565b600061057f8484610424565b905060001981146105e757818110156105da5760405162461bcd60e51b815260206004820152601d60248201527f45524332303a20696e73756666696369656e7420616c6c6f77616e63650000006044820152606401610400565b6105e7848484840361044f565b50505050565b6001600160a01b0383166106515760405162461bcd60e51b815260206004820152602560248201527f45524332303a207472616e736665722066726f6d20746865207a65726f206164604482015264647265737360d81b6064820152608401610400565b6001600160a01b0382166106b35760405162461bcd60e51b815260206004820152602360248201527f45524332303a207472616e7366657220746f20746865207a65726f206164647260448201526265737360e81b6064820152608401610400565b6001600160a01b0383166000908152602081905260409020548181101561072b5760405162461bcd60e51b815260206004820152602660248201527f45524332303a207472616e7366657220616d6f756e7420657863656564732062604482015265616c616e636560d01b6064820152608401610400565b6001600160a01b03848116600081815260208181526040808320878703905593871680835291849020805487019055925185815290927fddf252ad1be2c89b69c2b068fc378daa952ba7f163c4a11628f55a4df523b3ef910160405180910390a36105e7565b6000815180845260005b818110156107b75760208185018101518683018201520161079b565b506000602082860101526020601f19601f83011685010191505092915050565b6020815260006107ea6020830184610791565b9392505050565b80356001600160a01b038116811461080857600080fd5b919050565b6000806040838503121561082057600080fd5b610829836107f1565b946020939093013593505050565b60008060006060848603121561084c57600080fd5b610855846107f1565b9250610863602085016107f1565b9150604084013590509250925092565b634e487b7160e01b600052604160045260246000fd5b60008060006060848603121561089e57600080fd5b6108a7846107f1565b925060208401359150604084013567ffffffffffffffff808211156108cb57600080fd5b818601915086601f8301126108df57600080fd5b8135818111156108f1576108f1610873565b604051601f8201601f19908116603f0116810190838211818310171561091957610919610873565b8160405282815289602084870101111561093257600080fd5b8260208601602083013760006020848301015280955050505050509250925092565b60006020828403121561096657600080fd5b6107ea826107f1565b6000806040838503121561098257600080fd5b61098b836107f1565b9150610999602084016107f1565b90509250929050565b600181811c908216806109b657607f821691505b6020821081036109d657634e487b7160e01b600052602260045260246000fd5b50919050565b8082018082111561026457634e487b7160e01b600052601160045260246000fd5b828152604060208201526000610a166040830184610791565b949350505050565b60018060a01b0384168152826020820152606060408201526000610a456060830184610791565b9594505050505056fea26469706673582212207382e40cfd9d1ca6d25915e25606bf96523d8ae6345efb97bd2667ae419d599d64736f6c6343000813003360c06040523480156200001157600080fd5b5060405162001c4038038062001c4083398101604081905262000034916200027e565b8181601260003380828686818160036200004f838262000377565b5060046200005e828262000377565b5050506001600160a01b0384169150620000c190505760405162461bcd60e51b815260206004820152601860248201527f43616e6e6f7420736574206f776e657220746f207a65726f000000000000000060448201526064015b60405180910390fd5b600580546001600160a01b0319166001600160a01b0384811691909117909155811615620000f457620000f4816200010d565b50505060ff90911660805260a052506200044392505050565b336001600160a01b03821603620001675760405162461bcd60e51b815260206004820152601760248201527f43616e6e6f74207472616e7366657220746f2073656c660000000000000000006044820152606401620000b8565b600680546001600160a01b0319166001600160a01b03838116918217909255600554604051919216907fed8889f560326eb138920d842192f0eb3dd22b4f139c87a2c57538e05bae127890600090a350565b634e487b7160e01b600052604160045260246000fd5b600082601f830112620001e157600080fd5b81516001600160401b0380821115620001fe57620001fe620001b9565b604051601f8301601f19908116603f01168101908282118183101715620002295762000229620001b9565b816040528381526020925086838588010111156200024657600080fd5b600091505b838210156200026a57858201830151818301840152908201906200024b565b600093810190920192909252949350505050565b600080604083850312156200029257600080fd5b82516001600160401b0380821115620002aa57600080fd5b620002b886838701620001cf565b93506020850151915080821115620002cf57600080fd5b50620002de85828601620001cf565b9150509250929050565b600181811c90821680620002fd57607f821691505b6020821081036200031e57634e487b7160e01b600052602260045260246000fd5b50919050565b601f8211156200037257600081815260208120601f850160051c810160208610156200034d5750805b601f850160051c820191505b818110156200036e5782815560010162000359565b5050505b505050565b81516001600160401b03811115620003935762000393620001b9565b620003ab81620003a48454620002e8565b8462000324565b602080601f831160018114620003e35760008415620003ca5750858301515b600019600386901b1c1916600185901b1785556200036e565b600085815260208120601f198616915b828110156200041457888601518255948401946001909101908401620003f3565b5085821015620004335787850151600019600388901b60f8161c191681555b5050505050600190811b01905550565b60805160a0516117c9620004776000396000818161044b01528181610733015261075d0152600061027c01526117c96000f3fe608060405234801561001057600080fd5b50600436106101fb5760003560e01c806379ba50971161011a578063aa271e1a116100ad578063d5abeb011161007c578063d5abeb0114610449578063d73dd6231461046f578063dd62ed3e14610482578063f2fde38b14610495578063f81094f3146104a857600080fd5b8063aa271e1a146103fd578063c2e3273d14610410578063c630948d14610423578063c64d0ebc1461043657600080fd5b806395d89b41116100e957806395d89b41146103bc5780639dc29fac146103c4578063a457c2d7146103d7578063a9059cbb146103ea57600080fd5b806379ba50971461037e57806379cc67901461038657806386fe8b43146103995780638da5cb5b146103a157600080fd5b806340c10f19116101925780636618846311610161578063661884631461031a57806367a5cd061461032d5780636b32810b1461034057806370a082311461035557600080fd5b806340c10f19146102cc57806342966c68146102e15780634334614a146102f45780634f5632f81461030757600080fd5b806323b872dd116101ce57806323b872dd14610262578063313ce5671461027557806339509351146102a65780634000aea0146102b957600080fd5b806301ffc9a71461020057806306fdde0314610228578063095ea7b31461023d57806318160ddd14610250575b600080fd5b61021361020e366004611406565b6104bb565b60405190151581526020015b60405180910390f35b610230610528565b60405161021f9190611476565b61021361024b3660046114a5565b6105ba565b6002545b60405190815260200161021f565b6102136102703660046114cf565b6105d2565b60405160ff7f000000000000000000000000000000000000000000000000000000000000000016815260200161021f565b6102136102b43660046114a5565b6105f6565b6102136102c7366004611521565b610618565b6102df6102da3660046114a5565b6106ee565b005b6102df6102ef3660046115ec565b6107d6565b610213610302366004611605565b61080a565b6102df610315366004611605565b610817565b6102136103283660046114a5565b610866565b6102df61033b366004611605565b610879565b61034861088b565b60405161021f9190611620565b610254610363366004611605565b6001600160a01b031660009081526020819052604090205490565b6102df61089c565b6102df6103943660046114a5565b61094a565b610348610980565b6005546040516001600160a01b03909116815260200161021f565b61023061098c565b6102df6103d23660046114a5565b61099b565b6102136103e53660046114a5565b6109a5565b6102136103f83660046114a5565b610a20565b61021361040b366004611605565b610a2e565b6102df61041e366004611605565b610a3b565b6102df610431366004611605565b610a8a565b6102df610444366004611605565b610a98565b7f0000000000000000000000000000000000000000000000000000000000000000610254565b6102df61047d3660046114a5565b610ae7565b61025461049036600461166d565b610af1565b6102df6104a3366004611605565b610b1c565b6102df6104b6366004611605565b610b2d565b60006001600160e01b031982166336372b0760e01b14806104ec57506001600160e01b03198216630200057560e51b145b8061050757506001600160e01b0319821663e6599b4d60e01b145b8061052257506001600160e01b031982166301ffc9a760e01b145b92915050565b606060038054610537906116a0565b80601f0160208091040260200160405190810160405280929190818152602001828054610563906116a0565b80156105b05780601f10610585576101008083540402835291602001916105b0565b820191906000526020600020905b81548152906001019060200180831161059357829003601f168201915b5050505050905090565b6000336105c8818585610b7c565b5060019392505050565b6000336105e0858285610ba3565b6105eb858585610c17565b506001949350505050565b6000336105c88185856106098383610af1565b61061391906116f0565b610b7c565b60006106248484610a20565b50836001600160a01b0316336001600160a01b03167fe19260aff97b920c7df27010903aeb9c8d2be5d310a2c67824cf3f15396e4c16858560405161066a929190611703565b60405180910390a36001600160a01b0384163b156105c857604051635260769b60e11b81526001600160a01b0385169063a4c0ed36906106b290339087908790600401611724565b600060405180830381600087803b1580156106cc57600080fd5b505af11580156106e0573d6000803e3d6000fd5b505050505060019392505050565b6106f733610a2e565b61071b5760405163e2c8c9d560e01b81523360048201526024015b60405180910390fd5b81306001600160a01b0382160361073157600080fd5b7f00000000000000000000000000000000000000000000000000000000000000001580159061079257507f00000000000000000000000000000000000000000000000000000000000000008261078660025490565b61079091906116f0565b115b156107c757816107a160025490565b6107ab91906116f0565b60405163cbbf111360e01b815260040161071291815260200190565b6107d18383610c38565b505050565b6107df3361080a565b6107fe5760405163c820b10b60e01b8152336004820152602401610712565b61080781610cf7565b50565b6000610522600983610d01565b61081f610d23565b61082a600982610d78565b15610807576040516001600160a01b038216907f0a675452746933cefe3d74182e78db7afe57ba60eaa4234b5d85e9aa41b0610c90600090a250565b600061087283836109a5565b9392505050565b61080781670de0b6b3a7640000610c38565b60606108976007610d8d565b905090565b6006546001600160a01b031633146108ef5760405162461bcd60e51b815260206004820152601660248201527526bab9ba10313290383937b837b9b2b21037bbb732b960511b6044820152606401610712565b600580546001600160a01b0319808216339081179093556006805490911690556040516001600160a01b03909116919082907f8be0079c531659141344cd1fd0a4f28419497f9722a3daafe3b4186f6b6457e090600090a350565b6109533361080a565b6109725760405163c820b10b60e01b8152336004820152602401610712565b61097c8282610d9a565b5050565b60606108976009610d8d565b606060048054610537906116a0565b61097c828261094a565b600033816109b38286610af1565b905083811015610a135760405162461bcd60e51b815260206004820152602560248201527f45524332303a2064656372656173656420616c6c6f77616e63652062656c6f77604482015264207a65726f60d81b6064820152608401610712565b6105eb8286868403610b7c565b6000336105c8818585610c17565b6000610522600783610d01565b610a43610d23565b610a4e600782610daf565b15610807576040516001600160a01b038216907fe46fef8bbff1389d9010703cf8ebb363fb3daf5bf56edc27080b67bc8d9251ea90600090a250565b610a9381610a3b565b610807815b610aa0610d23565b610aab600982610daf565b15610807576040516001600160a01b038216907f92308bb7573b2a3d17ddb868b39d8ebec433f3194421abc22d084f89658c9bad90600090a250565b6107d182826105f6565b6001600160a01b03918216600090815260016020908152604080832093909416825291909152205490565b610b24610d23565b61080781610dc4565b610b35610d23565b610b40600782610d78565b15610807576040516001600160a01b038216907fed998b960f6340d045f620c119730f7aa7995e7425c2401d3a5b64ff998a59e990600090a250565b81306001600160a01b03821603610b9257600080fd5b610b9d848484610e6e565b50505050565b6000610baf8484610af1565b90506000198114610b9d5781811015610c0a5760405162461bcd60e51b815260206004820152601d60248201527f45524332303a20696e73756666696369656e7420616c6c6f77616e63650000006044820152606401610712565b610b9d8484848403610b7c565b81306001600160a01b03821603610c2d57600080fd5b610b9d848484610f92565b6001600160a01b038216610c8e5760405162461bcd60e51b815260206004820152601f60248201527f45524332303a206d696e7420746f20746865207a65726f2061646472657373006044820152606401610712565b8060026000828254610ca091906116f0565b90915550506001600160a01b038216600081815260208181526040808320805486019055518481527fddf252ad1be2c89b69c2b068fc378daa952ba7f163c4a11628f55a4df523b3ef910160405180910390a35050565b6108073382611136565b6001600160a01b03811660009081526001830160205260408120541515610872565b6005546001600160a01b03163314610d765760405162461bcd60e51b815260206004820152601660248201527527b7363c9031b0b63630b1363290313c9037bbb732b960511b6044820152606401610712565b565b6000610872836001600160a01b038416611268565b606060006108728361135b565b610da5823383610ba3565b61097c8282611136565b6000610872836001600160a01b0384166113b7565b336001600160a01b03821603610e1c5760405162461bcd60e51b815260206004820152601760248201527f43616e6e6f74207472616e7366657220746f2073656c660000000000000000006044820152606401610712565b600680546001600160a01b0319166001600160a01b03838116918217909255600554604051919216907fed8889f560326eb138920d842192f0eb3dd22b4f139c87a2c57538e05bae127890600090a350565b6001600160a01b038316610ed05760405162461bcd60e51b8152602060048201526024808201527f45524332303a20617070726f76652066726f6d20746865207a65726f206164646044820152637265737360e01b6064820152608401610712565b6001600160a01b038216610f315760405162461bcd60e51b815260206004820152602260248201527f45524332303a20617070726f766520746f20746865207a65726f206164647265604482015261737360f01b6064820152608401610712565b6001600160a01b0383811660008181526001602090815260408083209487168084529482529182902085905590518481527f8c5be1e5ebec7d5bd14f71427d1e84f3dd0314c0f7b2291e5b200ac8c7c3b925910160405180910390a3505050565b6001600160a01b038316610ff65760405162461bcd60e51b815260206004820152602560248201527f45524332303a207472616e736665722066726f6d20746865207a65726f206164604482015264647265737360d81b6064820152608401610712565b6001600160a01b0382166110585760405162461bcd60e51b815260206004820152602360248201527f45524332303a207472616e7366657220746f20746865207a65726f206164647260448201526265737360e81b6064820152608401610712565b6001600160a01b038316600090815260208190526040902054818110156110d05760405162461bcd60e51b815260206004820152602660248201527f45524332303a207472616e7366657220616d6f756e7420657863656564732062604482015265616c616e636560d01b6064820152608401610712565b6001600160a01b03848116600081815260208181526040808320878703905593871680835291849020805487019055925185815290927fddf252ad1be2c89b69c2b068fc378daa952ba7f163c4a11628f55a4df523b3ef910160405180910390a3610b9d565b6001600160a01b0382166111965760405162461bcd60e51b815260206004820152602160248201527f45524332303a206275726e2066726f6d20746865207a65726f206164647265736044820152607360f81b6064820152608401610712565b6001600160a01b0382166000908152602081905260409020548181101561120a5760405162461bcd60e51b815260206004820152602260248201527f45524332303a206275726e20616d6f756e7420657863656564732062616c616e604482015261636560f01b6064820152608401610712565b6001600160a01b0383166000818152602081815260408083208686039055600280548790039055518581529192917fddf252ad1be2c89b69c2b068fc378daa952ba7f163c4a11628f55a4df523b3ef910160405180910390a3505050565b6000818152600183016020526040812054801561135157600061128c600183611754565b85549091506000906112a090600190611754565b90508181146113055760008660000182815481106112c0576112c0611767565b90600052602060002001549050808760000184815481106112e3576112e3611767565b6000918252602080832090910192909255918252600188019052604090208390555b85548690806113165761131661177d565b600190038181906000526020600020016000905590558560010160008681526020019081526020016000206000905560019350505050610522565b6000915050610522565b6060816000018054806020026020016040519081016040528092919081815260200182805480156113ab57602002820191906000526020600020905b815481526020019060010190808311611397575b50505050509050919050565b60008181526001830160205260408120546113fe57508154600181810184556000848152602080822090930184905584548482528286019093526040902091909155610522565b506000610522565b60006020828403121561141857600080fd5b81356001600160e01b03198116811461087257600080fd5b6000815180845260005b818110156114565760208185018101518683018201520161143a565b506000602082860101526020601f19601f83011685010191505092915050565b6020815260006108726020830184611430565b80356001600160a01b03811681146114a057600080fd5b919050565b600080604083850312156114b857600080fd5b6114c183611489565b946020939093013593505050565b6000806000606084860312156114e457600080fd5b6114ed84611489565b92506114fb60208501611489565b9150604084013590509250925092565b634e487b7160e01b600052604160045260246000fd5b60008060006060848603121561153657600080fd5b61153f84611489565b925060208401359150604084013567ffffffffffffffff8082111561156357600080fd5b818601915086601f83011261157757600080fd5b8135818111156115895761158961150b565b604051601f8201601f19908116603f011681019083821181831017156115b1576115b161150b565b816040528281528960208487010111156115ca57600080fd5b8260208601602083013760006020848301015280955050505050509250925092565b6000602082840312156115fe57600080fd5b5035919050565b60006020828403121561161757600080fd5b61087282611489565b6020808252825182820181905260009190848201906040850190845b818110156116615783516001600160a01b03168352928401929184019160010161163c565b50909695505050505050565b6000806040838503121561168057600080fd5b61168983611489565b915061169760208401611489565b90509250929050565b600181811c908216806116b457607f821691505b6020821081036116d457634e487b7160e01b600052602260045260246000fd5b50919050565b634e487b7160e01b600052601160045260246000fd5b80820180821115610522576105226116da565b82815260406020820152600061171c6040830184611430565b949350505050565b60018060a01b038416815282602082015260606040820152600061174b6060830184611430565b95945050505050565b81810381811115610522576105226116da565b634e487b7160e01b600052603260045260246000fd5b634e487b7160e01b600052603160045260246000fdfea26469706673582212200ff316ad75d1bfb6557b0a4b4a03eb17e1af32ce790e3ff331f49e937cd5541664736f6c63430008130033608060405234801561001057600080fd5b5061158a806100206000396000f3fe6080604052600436106100865760003560e01c8063a48a905811610059578063a48a905814610133578063a8d87a3b14610154578063d6be695a14610190578063ee18e0d3146101bf578063fbca3b74146101e857600080fd5b806320487ded1461008b5780633cf97983146100be57806383826b2b146100ed57806396f4e9f914610120575b600080fd5b34801561009757600080fd5b506100ab6100a6366004610d27565b610223565b6040519081526020015b60405180910390f35b3480156100ca57600080fd5b506100de6100d9366004610e3b565b61022c565b6040516100b593929190610efb565b3480156100f957600080fd5b50610110610108366004610f26565b600192915050565b60405190151581526020016100b5565b6100ab61012e366004610f59565b610256565b34801561013f57600080fd5b5061011061014e366004610fa6565b50600190565b34801561016057600080fd5b5061017861016f366004610fa6565b5063499602d290565b6040516001600160a01b0390911681526020016100b5565b34801561019c57600080fd5b506101a762030d4081565b6040516001600160401b0390911681526020016100b5565b3480156101cb57600080fd5b506101d561138881565b60405161ffff90911681526020016100b5565b3480156101f457600080fd5b50610216610203366004610fa6565b5060408051600081526020810190915290565b6040516100b59190610fc1565b60005b92915050565b600060608161024561023d8861100e565b8787876104e9565b9250925092505b9450945094915050565b600061026282806110ba565b90506020146102995761027582806110ba565b60405163370d875f60e01b8152600401610290929190611130565b60405180910390fd5b60006102a583806110ba565b8101906102b29190611144565b90506001600160a01b038111806102c95750600a81105b156102d85761027583806110ba565b8060006102f06102eb60808701876110ba565b610646565b60000151905060008560405160200161030991906111f3565b60408051808303601f19018152828252805160209182012060a08401835280845267de41ba4fc9d91ad9828501528251338184015283518082038401815290840184529284019290925290925060009190606082019061036b908a018a6110ba565b8080601f0160208091040260200160405190810160405280939291908181526020018383808284376000920191909152505050908252506020016103b260408a018a6112f2565b808060200260200160405190810160405280939291908181526020016000905b828210156103fe576103ef6040830286013681900381019061133b565b815260200190600101906103d2565b5050505050815250905060005b61041860408901896112f2565b90508110156104a457610494338661043360408c018c6112f2565b8581811061044357610443611357565b905060400201602001358b806040019061045d91906112f2565b8681811061046d5761046d611357565b610483926020604090920201908101915061136d565b6001600160a01b03169291906106d0565b61049d81611388565b905061040b565b506000806104b68361138887896104e9565b5091509150816104db57806040516302a35ba360e21b815260040161029091906113af565b509198975050505050505050565b60006060816001600160a01b0384163b158061051c575061051a6001600160a01b0385166385572ffb60e01b610730565b155b1561053c575050604080516020810190915260008082526001925061024c565b60006385572ffb60e01b8860405160240161055791906113c2565b60408051601f198184030181529190526020810180516001600160e01b03166001600160e01b03199093169290921790915290506105998186888a608461074c565b60405192965090945092507fa8b0355886b5b7a28bb97e4f0a24feb172618407402721c4012d8b7c6433102f906105d590869086908690610efb565b60405180910390a187516020808a0151835184830120604080519485526001600160401b0390921692840192909252339083015260608201527f9b877de93ea9895756e337442c657f95a34fc68e7eb988bdfa693d5be83016b69060800160405180910390a1509450945094915050565b60408051602081019091526000815260008290036106755750604080516020810190915262030d408152610226565b6397a657c960e01b610687838561147b565b6001600160e01b031916146106af57604051632923fee760e11b815260040160405180910390fd5b6106bc82600481866114ab565b8101906106c991906114d5565b9392505050565b604080516001600160a01b0385811660248301528416604482015260648082018490528251808303909101815260849091019091526020810180516001600160e01b03166323b872dd60e01b17905261072a908590610826565b50505050565b600061073b836108fd565b80156106c957506106c98383610930565b6000606060008361ffff166001600160401b0381111561076e5761076e610b55565b6040519080825280601f01601f191660200182016040528015610798576020820181803683370190505b509150863b6107b25763030ed58f60e21b60005260046000fd5b5a858110156107cc57632be8ca8b60e21b60005260046000fd5b85900360408104810387106107ec576337c3be2960e01b60005260046000fd5b505a6000808a5160208c0160008c8cf193505a900390503d8481111561080f5750835b808352806000602085013e50955095509592505050565b600061087b826040518060400160405280602081526020017f5361666545524332303a206c6f772d6c6576656c2063616c6c206661696c6564815250856001600160a01b03166109b99092919063ffffffff16565b8051909150156108f857808060200190518101906108999190611516565b6108f85760405162461bcd60e51b815260206004820152602a60248201527f5361666545524332303a204552433230206f7065726174696f6e20646964206e6044820152691bdd081cdd58d8d9595960b21b6064820152608401610290565b505050565b6000610910826301ffc9a760e01b610930565b80156102265750610929826001600160e01b0319610930565b1592915050565b604080516001600160e01b03198316602480830191909152825180830390910181526044909101909152602080820180516001600160e01b03166301ffc9a760e01b178152825160009392849283928392918391908a617530fa92503d915060005190508280156109a2575060208210155b80156109ae5750600081115b979650505050505050565b60606109c884846000856109d0565b949350505050565b606082471015610a315760405162461bcd60e51b815260206004820152602660248201527f416464726573733a20696e73756666696369656e742062616c616e636520666f6044820152651c8818d85b1b60d21b6064820152608401610290565b600080866001600160a01b03168587604051610a4d9190611538565b60006040518083038185875af1925050503d8060008114610a8a576040519150601f19603f3d011682016040523d82523d6000602084013e610a8f565b606091505b50915091506109ae8783838760608315610b0a578251600003610b03576001600160a01b0385163b610b035760405162461bcd60e51b815260206004820152601d60248201527f416464726573733a2063616c6c20746f206e6f6e2d636f6e74726163740000006044820152606401610290565b50816109c8565b6109c88383815115610b1f5781518083602001fd5b8060405162461bcd60e51b815260040161029091906113af565b80356001600160401b0381168114610b5057600080fd5b919050565b634e487b7160e01b600052604160045260246000fd5b60405160a081016001600160401b0381118282101715610b8d57610b8d610b55565b60405290565b604051601f8201601f191681016001600160401b0381118282101715610bbb57610bbb610b55565b604052919050565b600082601f830112610bd457600080fd5b81356001600160401b03811115610bed57610bed610b55565b610c00601f8201601f1916602001610b93565b818152846020838601011115610c1557600080fd5b816020850160208301376000918101602001919091529392505050565b80356001600160a01b0381168114610b5057600080fd5b600060408284031215610c5b57600080fd5b604051604081018181106001600160401b0382111715610c7d57610c7d610b55565b604052905080610c8c83610c32565b8152602083013560208201525092915050565b600082601f830112610cb057600080fd5b813560206001600160401b03821115610ccb57610ccb610b55565b610cd9818360051b01610b93565b82815260069290921b84018101918181019086841115610cf857600080fd5b8286015b84811015610d1c57610d0e8882610c49565b835291830191604001610cfc565b509695505050505050565b60008060408385031215610d3a57600080fd5b610d4383610b39565b915060208301356001600160401b0380821115610d5f57600080fd5b9084019060a08287031215610d7357600080fd5b610d7b610b6b565b823582811115610d8a57600080fd5b610d9688828601610bc3565b825250602083013582811115610dab57600080fd5b610db788828601610bc3565b602083015250604083013582811115610dcf57600080fd5b610ddb88828601610c9f565b604083015250610ded60608401610c32565b6060820152608083013582811115610e0457600080fd5b610e1088828601610bc3565b6080830152508093505050509250929050565b600060a08284031215610e3557600080fd5b50919050565b60008060008060808587031215610e5157600080fd5b84356001600160401b03811115610e6757600080fd5b610e7387828801610e23565b945050602085013561ffff81168114610e8b57600080fd5b925060408501359150610ea060608601610c32565b905092959194509250565b60005b83811015610ec6578181015183820152602001610eae565b50506000910152565b60008151808452610ee7816020860160208601610eab565b601f01601f19169290920160200192915050565b8315158152606060208201526000610f166060830185610ecf565b9050826040830152949350505050565b60008060408385031215610f3957600080fd5b610f4283610b39565b9150610f5060208401610c32565b90509250929050565b60008060408385031215610f6c57600080fd5b610f7583610b39565b915060208301356001600160401b03811115610f9057600080fd5b610f9c85828601610e23565b9150509250929050565b600060208284031215610fb857600080fd5b6106c982610b39565b6020808252825182820181905260009190848201906040850190845b818110156110025783516001600160a01b031683529284019291840191600101610fdd565b50909695505050505050565b600060a0823603121561102057600080fd5b611028610b6b565b8235815261103860208401610b39565b602082015260408301356001600160401b038082111561105757600080fd5b61106336838701610bc3565b6040840152606085013591508082111561107c57600080fd5b61108836838701610bc3565b606084015260808501359150808211156110a157600080fd5b506110ae36828601610c9f565b60808301525092915050565b6000808335601e198436030181126110d157600080fd5b8301803591506001600160401b038211156110eb57600080fd5b60200191503681900382131561110057600080fd5b9250929050565b81835281816020850137506000828201602090810191909152601f909101601f19169091010190565b6020815260006109c8602083018486611107565b60006020828403121561115657600080fd5b5035919050565b6000808335601e1984360301811261117457600080fd5b83016020810192503590506001600160401b0381111561119357600080fd5b80360382131561110057600080fd5b8183526000602080850194508260005b858110156111e8576001600160a01b036111cb83610c32565b1687528183013583880152604096870196909101906001016111b2565b509495945050505050565b602081526000611203838461115d565b60a0602085015261121860c085018284611107565b915050611228602085018561115d565b601f1980868503016040870152611240848385611107565b935060408701359250601e1987360301831261125b57600080fd5b6020928701928301923591506001600160401b0382111561127b57600080fd5b8160061b360383131561128d57600080fd5b808685030160608701526112a28483856111a2565b93506112b060608801610c32565b6001600160a01b038116608088015292506112ce608088018861115d565b93509150808685030160a0870152506112e8838383611107565b9695505050505050565b6000808335601e1984360301811261130957600080fd5b8301803591506001600160401b0382111561132357600080fd5b6020019150600681901b360382131561110057600080fd5b60006040828403121561134d57600080fd5b6106c98383610c49565b634e487b7160e01b600052603260045260246000fd5b60006020828403121561137f57600080fd5b6106c982610c32565b6000600182016113a857634e487b7160e01b600052601160045260246000fd5b5060010190565b6020815260006106c96020830184610ecf565b600060208083528351818401528084015160406001600160401b0382168186015280860151915060a060608601526113fd60c0860183610ecf565b91506060860151601f198087850301608088015261141b8483610ecf565b608089015188820390920160a089015281518082529186019450600092508501905b8083101561146f57845180516001600160a01b031683528601518683015293850193600192909201919083019061143d565b50979650505050505050565b6001600160e01b031981358181169160048510156114a35780818660040360031b1b83161692505b505092915050565b600080858511156114bb57600080fd5b838611156114c857600080fd5b5050820193919092039150565b6000602082840312156114e757600080fd5b604051602081018181106001600160401b038211171561150957611509610b55565b6040529135825250919050565b60006020828403121561152857600080fd5b815180151581146106c957600080fd5b6000825161154a818460208701610eab565b919091019291505056fea2646970667358221220ac3db5726839bed25c7e9d36bf93f0a4d45e2dce2bcbabd7e044d886c22aa3ee64736f6c63430008130033","linkReferences":{}},"methodIdentifiers":{"configuration()":"6c70bee9","getSupportedTokens(uint64)":"fbca3b74","isChainSupported(uint64)":"a48a9058","requestLinkFromFaucet(address,uint256)":"657b9a4e","supportNewToken(address)":"cf838140"},"id":34}