{"abi":[{"type":"function","name":"GAS_PRICE_BITS","inputs":[],"outputs":[{"name":"","type":"uint8","internalType":"uint8"}],"stateMutability":"view"},{"type":"function","name":"MESSAGE_FIXED_BYTES","inputs":[],"outputs":[{"name":"","type":"uint256","internalType":"uint256"}],"stateMutability":"view"},{"type":"function","name":"MESSAGE_FIXED_BYTES_PER_TOKEN","inputs":[],"outputs":[{"name":"","type":"uint256","internalType":"uint256"}],"stateMutability":"view"}],"bytecode":{"object":"0x60bc610039600b82828239805160001a60731461002c57634e487b7160e01b600052600060045260246000fd5b30600052607381538281f3fe730000000000000000000000000000000000000000301460806040526004361060475760003560e01c806318994e7a14604c5780637a4bb232146067578063dc47c58b14607f575b600080fd5b605461022081565b6040519081526020015b60405180910390f35b606e607081565b60405160ff9091168152602001605e565b605460808156fea26469706673582212207696584c4187f93a95b3aae67416e93f406d6530afc678c2afb43f02096bf89464736f6c63430008130033","linkReferences":{}},"methodIdentifiers":{"GAS_PRICE_BITS()":"7a4bb232","MESSAGE_FIXED_BYTES()":"18994e7a","MESSAGE_FIXED_BYTES_PER_TOKEN()":"dc47c58b"},"id":65}